:030000000207658F
:1007650078FFE4F6D8FD9000007F007E07E4F0A353
:0A077500DFFCDEFA7581210207BAED
:0B001F00EF1FAC0670011E4C70F622B3
:100BDF00900004743CF090002B7401F07F06120D0E
:100BEF00B6C2C190002CE04401F0E054FDF0E49057
:100BFF000023F0A3F090001AF0A3F090000CF090F7
:100C0F000026F0A3F0900025F090002DF0A3F090B7
:100C1F000012F0900037F0900003F0C2C5D2C4C2AA
:100C2F0094C293D296C295C2C0900022F0C28D900A
:100C3F000002F0900007F0900017F090001CF0A356
:100C4F00F0900031F0A3F0900018F0A3F0C2829062
:100C5F00008804F01200A690009474A8F0A3E4F0AA
:100C6F00FF7EA812005E9000097401F0E490000866
:0B0C7F00F0900001F090000D04F02246
:1005860053A87F120D7B120E65120E5D120DFB1223
:100596000E47120E5443A880120BDF9000407401E0
:1005A600F0A304F0A304F0A304F0900028741EF056
:1005B600E4900036F0903FA093900000F0300307DF
:1005C600C203A2C3B392C3300013C200900036E048
:1005D600600214F0120944120003120CFB300102EF
:1005E600C201200202C1EEC202900028E06002149D
:1005F600F090002FE4F0A304F0D2C17FE87E03124E
:10060600001FC2C1E490002FF0A3F0120395120060
:10061600AE900004E0C394324002C1EE90000BE0BD
:1006260094024028900008E07022900000E06004E8
:100636007F128008900000E070057F10120DB690C2
:10064600002CE04402F09000047450F0900002E0A8
:1006560004F0C3940A5002C1EEE4F090002DE0FECF
:10066600A3E0FF9403EE9400401F90002DE4F0A356
:100676007464F0900004E0640260667402F0E49032
:10068600000BF090002BF08058C3EF9403EE94001B
:10069600504F900004E0B40248900018E475F00151
:1006A600120CD9FED3E5F09401EE94004033E490A9
:1006B6000018F0A3F090002EE0940390002DE09433
:1006C60000501E9000047401F0C3900024E09402D0
:1006D600900023E094004009900031E4F0A37439BF
:1006E600F0E490002DF0A3F0200402A1C3C2049010
:1006F6000027E004F07006900026E004F090000465
:10070600E064026002A1C3900026F0A3F0900024EA
:10071600E004F07006900023E004F0900023E0B4BB
:10072600021EA3E0B41C19900000E060047F128052
:100736000A900000E06002A1C37F0C120DB6A1C3AF
:10074600900023E064027004A3E064586002A1C331
:0F07560090002CE04402F09000047432F0A1C334
:03002B0002002AA6
:01002A0032A3
:03005B00020B3362
:100B3300C0E0C083C082C0D075D000C007D203908C
:100B43000090E004F0C3940A500261D4E4F0D200B0
:100B5300A3E004F094054004E4F0D201900092E095
:100B630004F0C3940A405B90002AE004F0700690FE
:100B73000029E004F0900012E004F0D3940540193A
:100B8300E4F090002CE01313135401F454013333B5
:100B93003354F8FFE054F74FF090000AE004F0D329
:100BA30094024017E4F090002CE013135401F45422
:100BB3000125E025E0FFE054FB4FF0900092E4F0C4
:100BC300D202900093E004F0D394644004E4F0D2A2
:0C0BD30004D007D0D0D082D083D0E03214
:040E5D007586012273
:100DFB00902F1D7405F0E4F5AD75AE0C75AF20F5B5
:080E0B00AC43A82075B12022C0
:0D0E470075B29275B32E43B20143A920226B
:040E6100438D20227B
:090E5400758EFF758DC0020E6160
:040E6500538A9F22EB
:100D7B007598DF902F007420F0902F08E4F0F58029
:100D8B0075A0E0902F017413F0902F09E4F0F58813
:100D9B0075B0FF902F02F0902F0AF0F590759BFF26
:0B0DAB00902F03F0902F0BF0F5C022FA
:10000300E58820E016900085E0FF700F900088E0FF
:0C0013007009EF7006D285C284D28622EC
:060E1300C2857FF47E01A0
:100E1900A2C3B392C3EF1FAC0670011E4C70F62239
:04005E00AB07AA063C
:10006200900000D286120E15120E13C286C3E582CC
:100072009410E58364809480501F120E13EA30E7D7
:1000820004D2848002C284EB25E0FBEA33FA120E2A
:1000920015D285120E15A380D4120E13C284120E2D
:0300A20015D286EE
:0100A5002238
:0500A600D282C282229B
:100DB600900000E0B40114900036E0700EEF64126B
:100DC6006009EF640A6004EFB4060DE42FFFE43413
:080DD60098FE12005E120E15DA
:010DDE0022F2
:0E0E390090002BE004F0E490001CF0A3F022E7
:1000AE0090001DE004F0700690001CE004F090003B
:1000BE0004E0644670026194900037E0705790003F
:1000CE0009E0702A90002CE04402F0C2C0C28DC23A
:1000DE00C5D2C4C294C293900000E060047F128027
:1000EE0008900000E070587F0D120DB621A7900009
:1000FE0009E06401600221E2C390001DE0940390C8
:10010E00001CE09400500221E2C2C0C28DC2C5D2D2
:10011E00C4C294804F900037E06401705290000981
:10012E00E0701E90002CE04402F0900000E06004AD
:10013E007F128008900000E070057F01120DB680DE
:10014E0058900009E06401600221E2C390001DE0B6
:10015E00940390001CE09400407AD2C0D28DD2C598
:10016E00D2C4D294C29390002CE054FDF0806590DE
:10017E000037E064027056900009E0702490002C65
:10018E00E04402F0900000E060047F1280089000CE
:10019E0000E070057F02120DB6900009E004F080B9
:1001AE002C900009E06401702BC390001DE09403B5
:1001BE0090001CE09400401C90002CE054FDF0C216
:1001CE00C0D28DC2C5C2C4D294D2938007E490002F
:1001DE001CF0A3F0900004E0643A702E90002BE027
:1001EE00FF70026170EFB401047F0B419C90002BF5
:1001FE00E0640260026194C390001DE0940A9000D6
:10020E001CE09400500261948034900004E0643B42
:10021E00703890002BE0FF70026170EFB401047F24
:10022E000A806B90002BE0640260026194C3900020
:10023E001DE0940A90001CE094005002619490001E
:10024E00047401F0E490002BF022900004E0643C72
:10025E00707D90002BE070047F06803290002BE0C2
:10026E006401702FC390001DE0940F90001CE09469
:10027E00004020900000E0600C7F12120DB690003E
:10028E002B7403F022900000E060026194FF120DC7
:10029E00B6617090002BE0FFB40211C390001DE018
:1002AE00942D90001CE0940040028018EF640360CF
:1002BE00026194C390001DE0941E90001CE0940017
:1002CE0050026194E4900012F090000404F0229029
:1002DE000004E064017059900001E004F0C394142E
:1002EE00400D90002CE030E304D2968002C296C2FC
:1002FE0095900031E475F001120CD9FED3E5F0941F
:10030E003CEE94005002619490000BE004F0E094F7
:10031E00035073900000E060047F1280089000008C
:10032E00E070057F04120DB6E4900031F0A3F022C8
:10033E00900004E06402704E900031F0A3F0D2966B
:10034E0090002BE0701F90002CE04402F090000013
:10035E00E060047F128008900000E070057F0812B4
:10036E000DB6020E3990002BE0B4011AC390001D99
:10037E00E0940F90001CE09400400B90002CE05491
:07038E00FDF0D295D296228A
:10039500900004E064327053C2C5D2C4900037F0B7
:1003A500C294C293C296C295C2C0C28D900005F098
:1003B500900022F090002CE04402F0900000E060F4
:1003C500047F128008900000E070057F10120DB6C2
:1003D500900004E004F0E490000CF090002DF0A3F0
:1003E500F0900002F0900017F08016900004E0B441
:1003F500330F90000CE004F0C394284004C2C3807E
:10040500FE900004E064466002819D900003E07068
:100415005BC2C5D2C4900037F0C294C293C296C2E3
:1004250095C2C0C28D900005F0900022F090002C7E
:10043500E04402F0900000E060047F128008900024
:1004450000E070057F05120DB6900003E004F0E4AE
:1004550090000CF090002DF0A3F0900002F09000B9
:1004650017F090000AF0900092F0802C900003E0C5
:100475006401702490002CE030E208D294D293D22B
:10048500968015C294C293C29690000CE004F0C306
:10049500940F4004C2C380FE900004E0FD645070D8
:1004A5003EC2C5D2C4900037F0C294C293C296C270
:1004B50095C2C0C28D900005F0900022F090002CEE
:1004C500E04402F0900004E004F0E490000CF090A9
:1004D500002DF0A3F0900002F0900017F08013EDCE
:1004E500B4510F90000CE004F0C394284004C2C33B
:1004F50080FE900004E06464705AC2C5D2C49000C6
:1005050037F0C294C293C296C295C2C0C28D900004
:1005150005F0900022F090002CE04402F0900000DD
:10052500E0600C7F12120DB69000047466F0229004
:100535000000E0704B7F03120DB6900004E004F05C
:10054500E490000CF090002DF0A3F0900002F090E4
:100555000017F022900004E0B4650F90000CE00451
:10056500F0C3941E4004C2C380FE900004E0B4664C
:100575000F90000CE004F0C3940A4004C2C380FE4F
:010585002253
:10094400E490003FF0D3900011E094E8900010E0B0
:100954009403400690003F7401F0E59020E1079075
:10096400003FE04402F0900039E0FF90003FE0FED9
:100974006F6002412F90003AE0FD6464702690009D
:100984002CE020E01FEEB4011BE04402F0900004D0
:10099400E064467002418190003FEEF060069000F2
:1009A400047464F0ED64647055900028E0604F9026
:1009B400003FE064037047900000E0700F04F09083
:1009C40000367464F0900004743B800AE4900000E4
:1009D400F0900004743AF0E490002BF0900000E0F2
:1009E400900040F07B007A007901E4900078F07F79
:1009F40008FE120A82903FA0E493900000F0900059
:100A04003AE004F0D39405403490003FE0FD700FC9
:100A1400D20690003AF090002CE054FEF0801E3094
:100A2400061BC20690003DEDF08012E490003AF0FF
:100A340090003FE0900039F0E490003FF090003DDA
:100A4400E0FF603990003FE0703390002CE030E12B
:100A5400028025EFB40221900004E0B4021A900051
:100A640037E004F0D394024002E4F0900037E090C1
:0E0A74000035F0E4900009F0E490003DF0221F
:100CFB00900004E06446603AE58020E31090001B0E
:100D0B00E004F0700F90001AE004F08007E490000C
:100D1B001AF0A3F090001AE07004A3E064027012C2
:100D2B0090002CE04402F0E4900003F09000047477
:030D3B0046F0225D
:0F0E290042007F0F004200830F004200810F0044
:100D3E0090007BEEF0A3EFF0120000E4F5EC000063
:100D4E00007F40908000E4F0A3DFFCE4F5E9900022
:100D5E007BE0FCA3E0FDECF5EAEDF5EB75EEEA7554
:0D0D6E00EC030000000000E5ED30E7FB2283
:100A8200900075EBF0A3EAF0A3E9F0900073EEF0AA
:100A9200A3EFF0543F6004007F14227FE87E03122C
:100AA200002EE4FFFE12002EA2AFE43390007AF093
:100AB200C2AF900073E0FEA3E0FF120D3E900078FB
:100AC200E030E005E4A3F0805C120000E4F5EC0005
:100AD200FF900075E0FBA3E0FAA3E0F98F82758333
:100AE20000120C8AFE74002FF582E43480F583EE46
:100AF200F00FEFB440DB000000E4F5E9900073E092
:100B0200FCA3E0FDECF5EAEDF5EB75EEEA75EC051C
:100B12000000000000E5ED30E7FBE4900079F0A36F
:100B2200E024FF92AF75EC30900079E0FF600100A5
:010B320022A0
:10080000900060EEF0A3EFF0A3EBF0A3EAF0A3E911
:10081000F0E490006FF0A3F0A3F0A3F0900060E08C
:10082000FEA3E0FFE4FCFD900069120CEF9000696C
:10083000E0F8A3E0F9A3E0FAA3E0FB900066E0246F
:10084000FFFF900065E034FFFEE4FCFDEB2FFFEAC4
:100850003EFEED39FDEC38FC900069120CEF900083
:1008600069E0FCA3E0FDEC4D6004007F12229000E3
:1008700060E0FFA3E090006DCFF0A3EFF0E4900004
:1008800067F0A3F0900065E0FEA3E0FFA3E0FCA307
:10089000E0FDC39FEC9E504790006DE0FEA3E02D6D
:1008A000F582EE3CF583E493FF900062E0FBA3E069
:1008B000FAA3E0F9900067A3E0F5828C83EF120CB5
:0608C000B7FF900070E09C
:1008C6002FF090006FE03400F0900068E004F070C4
:1008D60006900067E004F080A5E4900067F0A3F0BE
:1008E600900065E0FEA3E0FFA3E0FCA3E0FDC39F4C
:1008F600EC9E5030900062E0FBA3E0FAA3E0F98D95
:10090600828C83120C8AFF900072E02FF0900071A7
:10091600E03400F0900068E004F07006900067E0B4
:1009260004F080BC900071E0FEA3E0FF90006FE051
:0E093600B50608A3E0B507037F00227F162256
:100DDF00A2AFE433FEC2AF538D7FEF6007AF058F35
:0C0DEF008E438DA0AF06EE24FF92AF22D1
:10002E00A2AFE433FCC2AFEF4E600E90007DEEF057
:10003E00A3EFF07D1E7F018009E490007DF0A3F018
:0D004E00FDFF120DDFAF04EC24FF92AF2286
:040E6900438D202273
:0300AB000207FF4A
:0107FF0032C7
:10077F00020586E493A3F8E493A34003F68001F205
:10078F0008DFF48029E493A3F85407240CC8C3337B
:10079F00C4540F4420C8834004F456800146F6DF4A
:1007AF00E4800B0102040810204080900E29E47EA3
:1007BF00019360BCA3FF543F30E509541FFEE4933F
:1007CF00A360010ECF54C025E060A840B8E493A306
:1007DF00FAE493A3F8E493A3C8C582C8CAC583CA31
:1007EF00F0A3C8C582C8CAC583CADFE9DEE780BEE9
:010E380000B9
:100C8A00BB010CE58229F582E5833AF583E022501F
:100C9A0006E92582F8E622BBFE06E92582F8E22269
:0D0CAA00E58229F582E5833AF583E4932283
:100CB700F8BB010DE58229F582E5833AF583E8F073
:100CC700225006E92582C8F622BBFE05E92582C81F
:020CD700F22207
:100CD900C5F0F8A3E028F0C5F0F8E58215827002A6
:060CE9001583E038F02243
:0C0CEF00ECF0A3EDF0A3EEF0A3EFF02278
:00000001FF
